:020000040800F2
:10000000101900209D0100082B1F0008491B000843
:10001000291F000867040008F735000800000000E9
:10002000000000000000000000000000EB210008BC
:10003000F504000800000000E9210008ED21000897
:10004000B7010008B7010008B7010008B7010008B0
:10005000B7010008B7010008B7010008B7010008A0
:10006000B7010008B7010008B7010008B701000890
:10007000B7010008B7010008B7010008B701000880
:10008000B7010008B7010008B7010008B701000870
:10009000B7010008B7010008B7010008B701000860
:1000A000B7010008B7010008B7010008B701000850
:1000B000B7010008B7010008B7010008B701000840
:1000C000B7010008B7010008B7010008B701000830
:1000D000B7010008B7010008B7010008B701000820
:1000E000B7010008B7010008B7010008B701000810
:1000F000B7010008B7010008B7010008B701000800
:10010000000000000000000000000000B70100082F
:10011000B7010008B7010008B7010008B7010008DF
:10012000B7010008B7010008B7010008B7010008CF
:10013000B7010008B701000800000000000000003F
:10014000B7010008B7010008B7010008000000006F
:10015000000000000000000000000000000000009F
:100160000000000000000000513500087135000853
:10017000B7010008000000000000000000000000BF
:1001800000000000B7010008DFF80CD000F020F9F3
:1001900000480047453C00081019002006488047E9
:1001A00006480047FEE7FEE7FEE7FEE7FEE7FEE75C
:1001B000FEE7FEE7FEE7FEE765220008890100088A
:1001C0002DE9F05F0546002092469B46884606468C
:1001D000814640241BE0284641464746224600F01F
:1001E00020F853465A46C01A914110D3114618467A
:1001F000224600F089F82D1A67EB01084F46224687
:100200000120002100F080F817EB00094E41201E6C
:10021000A4F10104DFDC484631462A464346BDE8E6
:10022000F09F202A04DB203A21FA02F000217047D7
:1002300021FA02F3D040C2F120029140084319464E
:10024000704740EA01039B0703D009E008C9121F69
:1002500008C0042AFAD203E011F8013B00F8013B80
:10026000521EF9D27047D2B201E000F8012B491EAC
:10027000FBD270470022F6E710B513460A46044643
:100280001946FFF7F0FF204610BD421C10F8011B75
:100290000029FBD1801A70472DE9F04791460F469F
:1002A00080460446002614F8015B2DB100F03CF8AE
:1002B0000068405DC007F6D12B2D02D02D2D18D03F
:1002C000641E4A463946204600F032F827B13968A4
:1002D000A14201D1C7F8008071054FF002040BD58F
:1002E0004042002803DD03F0ABF90460A007BDE83D
:1002F000F08746F48066E4E70028F8DA03F0A0F916
:1003000004606FF00040F2E7202A04DB203A00FA94
:1003100002F1002070479140C2F1200320FA03F35C
:10032000194390407047000000487047283D00087E
:100330002DE9F05F82460078002715468B460AF1CA
:100340000104B946302801D09DB113E014F8010B27
:100350000127782803D0582801D045B10AE00DB113
:10036000102D07D10027102514F8010B02E00825F5
:1003700000E00A250026B0460EE005FB080005FB5C
:1003800006F1012701EB10461FFA80F8B6F5803F11
:1003900000D3B94614F8010B294600F02BF80028C9
:1003A000EBDABBF1000F05D00FB1641E00E054463C
:1003B000CBF80040B9F1000F06D003F041F902215B
:1003C0000160C81EBDE8F09F48EA0640FAE7000059
:1003D000064C074D06E0E06840F0010394E8070092
:1003E00098471034AC42F6D3FFF7D2FE2C3D0008FC
:1003F0004C3D00083A2800D2303820F02002412A33
:1004000001D3A2F13700884201D34FF0FF3070478B
:1004100070B58C1810F8015B15F0070301D110F8C6
:10042000013B2A1106D110F8012B03E010F8016BF3
:1004300001F8016B5B1EF9D12B0705D40023521E76
:100440000DD401F8013BFAE710F8013BCB1A921CDE
:1004500003E013F8015B01F8015B521EF9D5A142DC
:10046000D8D3002070BDFEE7002070470020704701
:1004700010B500220449054801F0F4FF044903487F
:1004800001F0EAFF002010BD24110020EC03002041
:100490003C0D002010B50022084B03E0845C9C5406
:1004A000521CD2B20C689442F8D805490120087059
:1004B000044801F0B5FF002010BD0000A00200209C
:1004C00000000020EC030020094A10B5D2F8B82241
:1004D000D2F814220AB1012010BD0A460146044890
:1004E00001F0C0FFBDE81040014802F019B800005B
:1004F000EC0300207047704770B5044600F0DEF84A
:100500000546601C02D004480078044400F0D6F888
:10051000401BA042FAD370BD640000202DE9F84FC3
:10052000DFF864B100234FF0010C4FF0030A4FF0E5
:100530000F090BF1040EA0E00CFA03F6324072D062
:100540004C68022C01D0122C0ED1DC0800EB840880
:10055000D8F820405D07EF0E09FA07F5AC430D69A6
:10056000BD402543C8F8205007685D0091F804801D
:100570000AFA05F408F00308A74308FA05F848EA60
:100580000708C0F800804F68012F05D0022F03D064
:10059000112F01D0122F11D18768D1F80C80A743F9
:1005A00008FA05F848EA0708C0F808804768B74322
:1005B0000E79C6F300169E403E434660C668A643C9
:1005C0008C68AC403443C4604C68E40054D52F4C74
:1005D000A56945F00105A561A46923F0030504F0B0
:1005E000010400942A4C2E19B4689D072F0F09FAB4
:1005F00007F5AC43B0F1904F04D0264DA84203D18B
:10060000012512E0002510E0234DA84201D102256A
:100610000BE0224DA84201D1032506E0204DA8425F
:1006200002D1042501E027E00525BD402543B56042
:10063000DBF800405D464E689443F60300D5144352
:100640002C60DEF8004075464E689443B60300D532
:1006500014432C600C4D08352C684E689443F60208
:1006600000D514432C60084D0C352C684E6894431B
:10067000B60200D514432C605B1C0A6832FA03F4FE
:100680007FF45AAFBDE8F88F00040140001002402B
:10069000000001400004004800080048000C004829
:1006A0000010004842690A4200D009048161704785
:1006B0000AB181617047816270470000014880681B
:1006C000704700006400002090F84120202A24D1C7
:1006D00090F84020012A20D0012280F840202422D6
:1006E00080F841200268136823F001031360026858
:1006F000136823F480531360026813680B4313607C
:1007000001680A6842F001020A60202180F8411065
:10071000002180F84010084670470220704790F88A
:100720004120202A22D190F84020012A1ED0012207
:1007300080F84020242280F841200268136823F0CA
:10074000010313600268136823F4706343EA012114
:10075000116001680A6842F001020A60202180F8F5
:100760004110002180F84010084670470220704771
:1007700070B5040004D094F84100002510B106E0E3
:10078000012070BD84F84050204600F0ABF92420D1
:1007900084F841002068016821F00101016060686F
:1007A000216820F0706008612068816821F40041B0
:1007B0008160E0680128A06807D040F40440216807
:1007C0008860E068022803D006E040F40040F6E7C5
:1007D00021684FF40060486020684168114A114365
:1007E00041602068C16821F40041C160D4E904017E
:1007F0000843A16940EA01202168C860D4E90701E3
:100800000843216808602068016841F00101016027
:100810006564202084F84100256384F8425000205C
:1008200070BD0000008000022DE9FF4F83B0044638
:10083000DDE9108790F84100DDF848909A4693462C
:10084000202874D15FEA080014D09FB194F84000CA
:1008500001286CD0012084F84000FFF72FFF0646E6
:10086000012200901923D103204601F03BFA002811
:1008700071D103E04FF4007060646CE0222084F8D2
:100880004100402084F8420000256564C4F82480BB
:1008900067856563CDE9009653465A46204604991C
:1008A00001F0A6F910B184F8405054E0618D35484C
:1008B000FF274FF080784FF0007AFF2904D9278571
:1008C0003A464346009005E0618D2185009094F8FA
:1008D000282053462046049901F0EEF94B460022A9
:1008E00004212046009601F0FDF9A0BB2068406A73
:1008F000616A0870606A401C6062208D401E81B28F
:100900002185608D401E6085608DD8B1D1B94B4680
:10091000002280212046009601F0E4F9D8B9608DCC
:10092000FF2805D927853A464346009506E026E08C
:10093000608D2085009594F8282053462046049920
:1009400001F0BAF9608D0028C8D1324649462046E8
:1009500001F0F4F918B1012007B0BDE8F08F21686B
:100960002020C86121684A68074B1A404A6084F811
:10097000410084F8425084F840500020ECE7022007
:10098000EAE700000024008000E800FE2DE9FF4FA8
:1009900083B00446DDE9108790F84100DDF8489007
:1009A0009A469346202871D15FEA080014D09FB17F
:1009B00094F84000012869D0012084F84000FFF736
:1009C0007DFE0646012200901923D103204601F046
:1009D00089F900286ED103E04FF40070606469E08B
:1009E000212084F84100402084F8420000256564FD
:1009F000C4F8248067856563CDE9009653465A465E
:100A00002046049901F026F910B184F8405051E0D5
:100A1000608DFF274FF080784FF0007AFF2804D9CF
:100A200027853A464346009505E0608D2085009570
:100A300094F8282053462046049901F03DF93246A7
:100A40004946204601F0A0F9A0BB606A2168007801
:100A50008862606A401C6062608D401E6085208DE7
:100A6000401E80B22085618DD9B1D0B94B4600229D
:100A700080212046009601F035F9D8B9608DFF2815
:100A800005D927853A464346009506E026E0608D65
:100A90002085009594F8282053462046049901F0BB
:100AA0000BF9608D0028CAD132464946204601F034
:100AB00045F918B1012007B0BDE8F08F206820216A
:100AC000C16120684268064B1A40426084F84110B8
:100AD00084F8425084F840500020ECE70220EAE716
:100AE00000E800FE10B586B0044614216846FFF702
:100AF000C1FB1249206888421ED1114C606940F444
:100B0000802060616069694600F480200590C02003
:100B100000901220019001200290032003900420F5
:100B200004900848FFF7FAFCE06940F40010E06127
:100B3000E06900F40010059006B010BD00540040BC
:100B40000010024000040048024881680278114405
:100B50008160704764000020074810B5016841F0CB
:100B600010010160032000F06DF8002000F006F88D
:100B700000F024F8002010BD0020024070B50D4D9B
:100B800004464FF47A712878B1FBF0F00A490968FD
:100B9000B1FBF0F000F0C4FF48B9102C07D20022DE
:100BA0002146501E00F02EF800206C6070BD012020
:100BB00070BD00006400002070000020094808B5E6
:100BC000816941F001018161816901F001010091B8
:100BD000C16941F08051C161C06900F0805000904E
:100BE00008BD000000100240002809DB00F01F02D1
:100BF000012191404009800000F1E020C0F800117F
:100C000070470000F0B40E4B1B680C46C3F3022380
:100C1000C3F10705042D00D90425191D072901D2A8
:100C2000002300E0DB1E012606FA05F1491E2140E3
:100C300099409E40761E16403143F0BC02F0F0BC55
:100C40000CED00E0064900F0070208684FF6FF03CC
:100C5000184040EA0220034A104308607047000031
:100C60000CED00E00000FA0510B50C0605D501F00A
:100C7000070100EB4110283003E000EB411000F5C4
:100C8000947099B232B1012202730181190C418131
:100C9000002010BD00220273C180F9E7704700EB0D
:100CA0004112D0F86802D26B01F0E9BD00EB4112AD
:100CB000D0F86802D2F83C2101F044BE70B5044679
:100CC0000B0601F0070004EB40114FF001024FF05A
:100CD000000503D581F82920283103E081F8295146
:100CE00001F59471087094F82802012808D084F85E
:100CF0002822206802F065FA84F82852002070BD8E
:100D0000022070BD70B5044601F00F006268904289
:100D100001D9012070BD0B0601F0070004EB401162
:100D20004FF001024FF0000503D581F8292028314A
:100D300003E081F8295101F594718D70087094F8E1
:100D40002802012808D084F82822206802F0DAFA64
:100D500084F82852002070BD022070BD01F0070108
:100D600000EB4110D0F8440170472DE9F0410446F2
:100D70000F0601F0070004EB40114FF001064FF0A1
:100D8000000503D581F82960283103E081F8295155
:100D900001F5947108700A61CB704A7802B1C8817C
:100DA000022B00D10D7194F82802012809D084F893
:100DB0002862206802F0D6F8284684F82852BDE858
:100DC000F0810220FBE770B50C4601F0070500EB4F
:100DD0004511C1E94F230022C1F8442181F829219E
:100DE00081F8285101F594716207006802F0DFFA7A
:100DF000002070BD70B504460D4601F00700616823
:100E0000884201D9012070BD29064FF000064FF03D
:100E1000010205D504EB401181F82920283105E0B5
:100E200004EB451181F8296101F594718A7008700D
:100E300094F82802012807D084F82822206802F0BC
:100E40009DFA680702D006E0022070BD04F50C711F
:100E5000206802F055FA84F82862002070BD70B551
:100E60000C4601F0070500EB4511C1E90F230022F4
:100E70004A64012281F8292001F8285F620700688E
:100E800002F095FA002070BD10B50446006802F02B
:100E90007FFB000402D5204601F048F8206802F0EC
:100EA00077FB40050CD5206830F8441F21F48061A1
:100EB0000180204600F008F90021204600F01FF9CB
:100EC000206802F065FB400405D5206830F8441F17
:100ED00021F480410180206802F05AFB800405D58E
:100EE000206830F8441F21F400510180206802F08E
:100EF0004FFBC00414D5206830F8401F21F00401D6
:100F00000180206830F8401F21F008010180204650
:100F100000F0EDF8206830F8441F21F48051018082
:100F2000206802F035FB00051AD5206830F8401F14
:100F300041F008010180206830F8441F21F400616D
:100F40000180206830F8401F41F0040101802068D2
:100F500002F01EFBC043C00402D5204600F004F995
:100F6000206802F015FB800508D5206830F8441F82
:100F700021F400710180204600F0BDF8206802F0E5
:100F800007FBC00505D5206830F8441F21F48071A7
:100F9000018010BD70B586B0040004D094F8290219
:100FA000002518B107E0012006B070BD84F8285272
:100FB000204600F03FF8032084F82902206802F060
:100FC00098F9002001260CE004EB401181F829601B
:100FD00001F8280FC881CD700D614D61401CC0B271
:100FE0008D6161688142EFD800200FE004EB401171
:100FF00081F8295181F8280181F82B51C1F8385125
:10100000C1F83C51401CC0B2C1F8405161688142F6
:10101000ECD8142204F110016846FFF712F994E8A5
:101020000F0002F057F984F8245084F82962002058
:10103000BAE7000010B586B0044614216846FFF7F1
:1010400019F91E492068884235D11D4C606940F469
:10105000003060616069694600F4003005904FF42B
:10106000C0500090022001900020029003200390C5
:101070000E2004904FF09040FFF750FAE06940F4E2
:101080000000E061E06900F4000005900D4801688F
:1010900041F020010160002211464A20FFF7B2FD15
:1010A0004A20FFF7A1FD002211464B20FFF7AAFDC1
:1010B0004B20FFF799FD06B010BD0000005C00401A
:1010C000001002400000014070B504468068012510
:1010D000022801D0FFF70FFA2946D4F8680201F080
:1010E00018FDD4F86802BDE8704001F0D4BCD0F817
:1010F000680201F0F8BCD0F8680201F0FEBC10B53F
:10110000044690F8280201280BD0012084F8280218
:1011100084F82410206802F055FA002084F8280290
:1011200010BD022010BDD0F8682200F50C711046E9
:1011300001F0FBBC10B5044690F82802012810D03D
:10114000012084F8280201462046FFF7A7FD206809
:1011500002F0BEF8206802F0F4F9002084F82802BA
:1011600010BD022010BD000010B50446D0F8680282
:1011700001F01AFDA069002804D00348016841F07D
:101180000601016010BD000010ED00E02DE9F84FF0
:1011900004460068804DC0036FD5E8690026C00092
:1011A00008D4E86940F08050E861E869012600F061
:1011B0008050009079480168C90512D401688046C2
:1011C00041F480710160FFF779FA074605E000BF3E
:1011D000FFF774FAC01B642835D8D8F80000C005A2
:1011E000F6D5286A10F4407053D0A18801F44071FC
:1011F00081424ED0286A4FF4803191FAA1F2B2FABE
:1012000082F29700664A4FF00108174420F44070BC
:10121000C7F8008491FAA1F1B1FA81F102EB8101E2
:101220000023C1F800342862C00732D0FFF746FA25
:10123000074641F2883A4FF0020907E0FFF73EFA0D
:10124000C11B514502D90320BDE8F88F99FAA9F1D5
:10125000B1FA81F141F040014846B8EB511F01D18C
:1012600029680CE090FAA0F1B1FA81F141F0400157
:10127000B0EB511F02D1296A01E015E0696A99FAC1
:10128000A9F0B0FA80F000F01F0008FA00F2114255
:10129000D4D0286A616820F44070084328621EB1E7
:1012A000E86920F08050E8612078C00705D0286BFD
:1012B000A16820F00300084328632078800705D543
:1012C000286BE16820F44030084328632078400709
:1012D00005D5286B216920F4402008432863207835
:1012E000800605D5286BE16920F0100008432863CB
:1012F0002068800305D56868A16B20F4800008434E
:1013000068602078400605D5286B216A20F020000F
:10131000084328632078000705D5286B616920F40D
:101320004010084328632078C00605D5286BA169C2
:1013300020F44000084328632088800505D56868AC
:10134000E16A20F40000084368602078000605D5B3
:10135000E86A616A20F4F8700843E8622088C005F2
:1013600005D5E86AA16A20F478500843E86220882D
:10137000C00405D5286B216B20F4807008432863D6
:101380002088800405D5286B616B20F40070084329
:101390002863002058E70000001002400070004061
:1013A000000042422DE9F0470F46050069D04A4E41
:1013B000306800F00700B84209D2306820F007001A
:1013C00038433060306800F00700B84259D12878BF
:1013D000424C800705D56068A96820F0F0000843FA
:1013E00060602878C0073DD06968012001290DD0D0
:1013F000022923D05FF0020393FAA3F2B2FA82F239
:1014000042F02002520904D0226803E04FF4003376
:10141000F2E7626A93FAA3F3B3FA83F303F01F03CC
:10142000984002422DD0606820F0030008436060BD
:10143000FFF744F9804641F288390CE04FF0007321
:10144000DAE700BFFFF73AF9A0EB0801494502D9F6
:101450000320BDE8F0876068696800F00C00B0EB1D
:10146000810FEFD1306800F00700B8420BD9306827
:1014700020F0070038433060306800F00700B842C1
:1014800001D00120E5E72878400705D56068E968C4
:1014900020F4E060084360602878000706D56068A3
:1014A000296920F4605040EAC100606000F01EF835
:1014B0006168F02292FAA2F201F0F001B2FA82F22F
:1014C000D140074A515CC840064908600648006898
:1014D000FFF754FB0020BCE7002002400010024050
:1014E000943C00087000002068000020164A10B5E7
:1014F0005168164801F00C03042B20D0082B1ED194
:101500004FF4701494FAA4F401F47013B4FA84F450
:10151000E3400F4CD26AE45C0F2393FAA3F302F08A
:101520000F02B3FA83F3DA40094B1033C9039A5C14
:1015300006D500231946FEF743FEA0FB040110BDAB
:101540000448A4FB000110BD0010024000127A0004
:10155000743C000800093D002DE9F84F050071D0EA
:101560002878FC4EC0074FF0010425D0706867044E
:10157000C0F38100012807D07068C0F38100022801
:101580001BD17068C00318D597FAA7F0B0FA80F0A5
:1015900040F02000400901D0306800E0706A97FAFE
:1015A000A7F1B1FA81F101F01F0104FA01F108423B
:1015B00065D068680028D2D061E06868B0F5803FE7
:1015C0000BD010B1B0F5A02F17D0306820F48030C8
:1015D0003060306820F4802002E0306840F48030D1
:1015E0003060F06AA96820F00F000843F062686874
:1015F00020B3FFF763F880460AE0306840F48020AB
:101600003060EAE7FFF75AF8A0EB0800642871D8C9
:1016100097FAA7F0B0FA80F040F02000400901D01E
:10162000306800E0706A97FAA7F1B1FA81F101F031
:101630001F0104FA01F10842E4D020E0FFF73EF870
:10164000804607E0C2E000BFFFF738F8A0EB0800D3
:101650006428DCD897FAA7F0B0FA80F040F02000B8
:10166000400901D0306800E0706A97FAA7F1B1FA3A
:1016700081F101F01F0104FA01F10842E4D1287858
:10168000DFF8D48280074FF0000A4FF0020730D510
:1016900070684FF0F80B10F00C0F07D07068C0F3B3
:1016A0008100022827D17068C00324D497FAA7F0DC
:1016B000B0FA80F040F02000400901D0306800E02E
:1016C000706A97FAA7F1B1FA81F101F01F0104FAEB
:1016D00001F1084202D02869012877D130689BFACD
:1016E000ABF220F0F8016869B2FA82F2904001434F
:1016F00031605AE064E1286988B394FAA4F0B0FA42
:1017000080F048F82040FEF7D9FF814606E000BF90
:10171000FEF7D4FFA0EB090002289AD897FAA7F0A9
:10172000B0FA80F040F02000400901D0306800E0BD
:10173000706A97FAA7F1B1FA81F101F01F0104FA7A
:1017400001F10842E4D030689BFAABF26969B2FA61
:1017500082F220F0F80091400843306025E0FFE776
:1017600094FAA4F0B0FA80F048F820A0FEF7A6FFA3
:10177000814605E0FEF7A2FFA0EB09000228CCD8C5
:1017800097FAA7F0B0FA80F040F02000400901D0AD
:10179000306800E0706A97FAA7F1B1FA81F101F0C0
:1017A0001F0104FA01F10842E4D1287800076CD542
:1017B000A869A8B394FAA4F0B0FA80F008EB80000E
:1017C000C0F88044FEF77AFF814607E0A4E100BF3D
:1017D000FEF774FFA0EB090002289ED897FAA7F045
:1017E000B0FA80F040F06000B4EB501F01D13068D7
:1017F0000BE097FAA7F0B0FA80F040F06000B7EB8A
:10180000501F01D1306A00E0706A97FAA7F1B1FA6F
:1018100081F101F01F0104FA01F21042D8D034E046
:10182000FFE794FAA4F1B1FA81F108EB8101C1F864
:1018300080A4FEF743FF814606E000BFFEF73EFFAF
:10184000A0EB090002289AD897FAA7F0B0FA80F026
:1018500040F06000B4EB501F01D130680BE097FA04
:10186000A7F0B0FA80F040F06000B7EB501F01D154
:10187000306A00E0706A97FAA7F1B1FA81F101F0DD
:101880001F0104FA01F21042D8D12878400768D528
:10189000F0694FF00009C00009D4F06940F08050B1
:1018A000F061F0694FF0010900F0805000902B4882
:1018B0000168C90512D4016841F480710160FEF726
:1018C000FDFE834606E000BFFEF7F8FEA0EB0B002E
:1018D000642875D821480068C005F5D5E868012856
:1018E0000AD008B1052811D0306A20F0010030621A
:1018F000306A20F0040002E0306A40F001003062FB
:10190000E86868B3FEF7DAFE83460DE0306A40F01F
:1019100004003062F0E700BFFEF7D0FEA0EB0B0141
:1019200041F2883081424BD897FAA7F0B0FA80F0A4
:1019300040F04000B4EB501F01D1306813E097FA3B
:10194000A7F0B0FA80F040F04000B7EB501F09D18B
:10195000306A08E00010024000004242007000407F
:101960000CE040E0706A97FAA7F1B1FA81F101F05A
:101970001F0104FA01F21042CED02DE0FEF79EFEC8
:10198000834607E0FEF79AFEA0EB0B0141F2883098
:10199000814215D897FAA7F0B0FA80F040F04000E5
:1019A000B4EB501F01D130680CE097FAA7F0B0FA01
:1019B00080F040F04000B7EB501F02D1306A01E0E8
:1019C00083E0706A97FAA7F1B1FA81F101F01F0183
:1019D00004FA01F21042D5D1B9F1000F03D0F06939
:1019E00020F08050F061E86980B37168C1F3810133
:1019F000022977D04FF080714F000228504609D05D
:101A000091FAA1F1B1FA81F148F82100FEF756FEF2
:101A100005465DE0894691FAA1F1B1FA81F1C2462D
:101A200048F82100FEF74AFE804605E0FEF746FE34
:101A3000A0EB0800022848D897FAA7F0B0FA80F087
:101A400040F02000400902D0306801E066E0706A92
:101A500097FAA7F1B1FA81F101F01F0104FA01F13F
:101A60000842E3D1D5E908100843716821F47411E4
:101A70000843706099FAA9F0B0FA80F04AF8204063
:101A8000FEF71CFE054604E0FEF718FE401B022888
:101A90001BD897FAA7F0B0FA80F040F02000400978
:101AA00001D0306800E0706A97FAA7F1B1FA81F1CD
:101AB00001F01F0104FA01F10842E5D02EE000BF59
:101AC000FEF7FCFD401B022802D90320BDE8F88F79
:101AD00097FAA7F0B0FA80F040F02000400902D059
:101AE000306801E00BE0706A97FAA7F1B1FA81F172
:101AF00001F01F0104FA01F10842E1D10EE00128D2
:101B0000E4D070682A6A00F48031914204D1696A95
:101B100000F47010884201D00120D7E70020D5E7FB
:101B200010B5401EB0F1807F01D3012010BD4FF0F1
:101B3000E02460610F21601701F072FD0020A061B8
:101B400007202061002010BDFEE701688A69D243AA
:101B5000920701D400228A6200688169C943C907DB
:101B600003D0816941F00101816170472DE9F041A5
:101B70000446006890460E468069C043C00633D4D0
:101B80000025202720688069C043800615D5701C79
:101B9000F8D0FEF793FDA0EB0800B04201D8002E6C
:101BA000F0D154F8440F40F0200044F80409677065
:101BB000A57025700120BDE8F08121681020C86162
:101BC0002068C7612046FFF7C0FF54F8440B416806
:101BD000064A11404160206840F0040044F82009A2
:101BE0006777A5772577E5E70020E4E700E800FEC2
:101BF0002DE9F84304461646DDE90897144898464F
:101C0000DAB200900023204600F056F83A464946E2
:101C1000204600F0B9F8B8B9F5B2B8F1010F08D014
:101C20002168300A88623A464946204600F0ACF8FE
:101C300050B9206885624B4600224021204600971B
:101C400000F050F8002800D00120BDE8F883000023
:101C5000002000802DE9F8430446164615489846B2
:101C6000DDE90897DAB2C3020090204600F024F8BC
:101C70003A464946204600F087F8B8B9F5B2B8F1BF
:101C8000010F08D02168300A88623A46494620464A
:101C900000F07AF850B9206885624B460022802116
:101CA0002046009700F01EF8002800D00120BDE873
:101CB000F883000000200080F0B50568059C686886
:101CC0004FF48066064FC1F3090106EA545641EA13
:101CD00002413E431943B043214308436860F0BDCD
:101CE000FF63FF032DE9F0411D4617460E460446EB
:101CF000DDF8188008E0681C06D0FEF7DFFCA0EBDA
:101D00000800A8420BD855B12068806936EA000067
:101D100012D00020B842EED00020BDE8F08154F887
:101D2000440F40F0200044F8040920206070002097
:101D3000A07020700120F0E70120EBE770B5164697
:101D40000D4604460DE0324629462046FFF70EFFB9
:101D500008B1012070BDFEF7B1FC801BA84207D876
:101D600035B120688069C0438006ECD4002070BD86
:101D700054F8440F40F0200044F80409202060701B
:101D80000020A0702070E4E770B516460D460446AA
:101D90000FE0324629462046FFF7E8FE08B1012051
:101DA00070BD681C05D0FEF789FC801BA84207D8CF
:101DB00035B120688069C0438007EAD4002070BD37
:101DC00054F8440F40F0200044F8040920206070CB
:101DD0000020A0702070E2E7F0B500230A2430252F
:101DE00037261F4611E000BFB4EB107F02D905EB88
:101DF000107C01E006EB107C01F813C001EB430CF2
:101E000000015B1C8CF80170DBB29342ECD3F0BD97
:101E100030B587B014216846FEF72CFA1A4841699C
:101E200041F480014161416901F4800105914169FA
:101E300041F400114161416901F4001105914169CA
:101E400041F400314161416901F40031059141697A
:101E500041F48021416140690C4D00F480204FF431
:101E60007F440590002221462846FEF721FC0120F0
:101E700000210094CDE90101039169462846FEF74F
:101E80004DFB07B030BD00000010024000100048BC
:101E90000E4810B50C4901600D4941600021012236
:101EA000C0E90212016141618161C1610162FEF715
:101EB0005FFC00210548FEF707FCBDE8104000214B
:101EC0000248FEF72CBC000000540040A003002094
:101ED0000E09002010B500220F49104800F0A8FCA0
:101EE00008B1FEF708FB0E490C4800F083FE08B16C
:101EF000FEF701FB0B49094800F0A6FA08B1FEF70E
:101F0000FAFA064800F0CCFE002803D0BDE81040E5
:101F1000FEF7F1BA10BD000004000020EC03002021
:101F20005001002054000020FEE770472DE9F05FCB
:101F3000044648F60F7B4FF0020A4FF4806847E1F1
:101F4000B0F8441011F00F0629D030F8267039048B
:101F500079D530F8261040F68F72114041F080019B
:101F600020F8261004EB461595F8340105F5947514
:101F70000028206868D0297830F82120B0F8503047
:101F800052047DD50AEBC1015A1808EB4201415AAF
:101F9000C1F309015FEA010973D02A89CEE0C906BD
:101FA0002DD4018801EA0B0141F400410180206831
:101FB00004F12805B0F850202B780AEBC3010A443D
:101FC00008EB4201405AC0F309006064E16B084429
:101FD000E06300212046FEF762FE94F8240000280A
:101FE000ADD0A8690028AAD194F82400216840F057
:101FF0008000A1F84C00002084F82400E8E001886B
:1020000004F594750A0520D5B0F850202B780621E8
:1020100001EBC3010A4408EB4201405A04F50C717C
:10202000C0F30903EB61EA88206801F0B5FA216882
:10203000088840F68F72104040F0800008802046EB
:10204000FFF771F8C4E09FE056E0090453D501881A
:1020500040F68F72114041F0800101802068B0F895
:1020600050202B78062101EBC3010A4408EB420102
:10207000405A83059B0DEB6110D0696971B101E095
:102080004FE05FE0EA88206801F086FAE969686954
:102090000844686100212046FEF708FE2068B0F879
:1020A00050100144286901F20C4150B13E280ED86D
:1020B0004208C00700D0521C4FF6FF7000EA822091
:1020C0000DE0088820F4F84040F4004007E04209A1
:1020D000C00600D1521E4FF4004040EA8220088022
:1020E000206801884BF68F72114081F4405148F20C
:1020F0008002114301806BE0B0F850202B7806215C
:1021000001EBC3010A4408EB4201415AC1F3090142
:102110005FEA010922D0EA884B46696901F03CFA7E
:102120001CE0062202EBC1015A1808EB4201415A99
:10213000C1F309015FEA010904D06A894B46696964
:1021400001F02AFA2978226832F8210048F68F73C4
:10215000184048F2C003184322F82100E96901EB56
:102160000900E861696901EB09026A61AB6913B1B1
:102170002969494504D929782046FEF797FD03E0EF
:1021800029782046FEF71FFE380621D5226804EB89
:10219000461032F8261001EA0B0141F4004122F802
:1021A00026102168B1F8503010F8282F0AEBC2022F
:1021B0001A4408EB4202895AC1F30901C16142691C
:1021C0000A44426101788369204653B1FEF747FE15
:1021D0002068B0F8441009043FF5B2AE0020BDE815
:1021E000F09FFEF75CFDF3E770477047FEF7ACBC6D
:1021F00030B59FB028216846FEF73CF8142119A895
:10220000FEF738F83C210AA8FEF734F803200090C6
:102210004FF4A0200024CDE90104012004901020F7
:10222000059002250003CDE907500001099068469A
:10223000FFF792F90F20CDE919056802CDE91B409F
:10224000012119A81D94FFF7ADF805480A90400434
:10225000189011940AA8FEF799FF1FB030BD000036
:10226000200002000548016841F470010160034943
:102270004FF00060803908607047000088ED00E092
:102280002DE9F041D0F8C032D0F8B822CAB101EB44
:10229000810400EB84040025E6693EB103EB4113A1
:1022A0009B6BB6FBF3F703FB176323B1C2F8145221
:1022B0000020BDE8F08100231A46E56100F07DFCB6
:1022C000F6E70220F5E770B50546D0F8B84200F011
:1022D0007AFBC4F80C02D5F8B80248B1D5F8BC12A4
:1022E000D4F80402CA6804F503719047002070BD59
:1022F000022070BD70B504460026812100F0B6FAB8
:10230000002501212046E56200F0B0FA8221204636
:10231000C4F86C5100F0AAFA2564D4F8B80248B1A8
:10232000D4F8BC0204F52E7440688047206800F0A1
:1023300014FE2560304670BD10B5D0E9AE4159B1EC
:1023400094F80002FF2807D08B6894F801222146F8
:102350009847FF2084F80002002010BD0A21018068
:1023600000487047780000204321018000487047F2
:10237000C8000020432101800048704784000020ED
:1023800043210180004870470C0100202DE9F041F5
:1023900004460026007C4FF40077012590B34023CB
:1023A00002228121204600F061FB4023E5620222E7
:1023B0000121204600F05AFB0823032282212046F7
:1023C000C4F86C5100F052FB4FF40770256400F024
:1023D000C5FDC4F8B802F8B10546D4F8BC020068DF
:1023E00080470020C5F81402C5F81802207CD5F8F3
:1023F000042298B140230121204600F043FB3046DF
:10240000BDE8F081FFE73B4602228121204600F033
:102410002DFB3B46E562CAE70126F0E73B46EAE7CB
:1024200010B5D0F8B81269B1027C002AD1F80422A4
:1024300005D04023012100F025FB002010BD4FF402
:102440000073F7E7022010BD02460220002902D0E7
:102450000020C2F8BC127047D0F8B802C0F80412CD
:1024600000207047D0F8B802C0F81022C0F8081257
:10247000002070472DE9FC410546D0F8B8720020D5
:102480008DF80000ADF80400064608780C4610F000
:10249000600121D020293BD1E288AAB100066078F2
:1024A00007D5D5F8BC128B6839469847E28839467B
:1024B00026E087F80002A07987F80102E288394611
:1024C000284600F06AF828E0D5F8BC1260780022AF
:1024D0008B682146984720E0607820B10A2809D00F
:1024E0000B2815D110E095F89C02032810D1022288
:1024F00001A905E095F89C02032809D1012269464B
:10250000284600F064F808E095F89C02032804D0FF
:102510002146284600F036F802263046BDE8FC8108
:1025200010B5D0F8B812A1B1D1F814220AB1012027
:1025300010BD0122C1F81422D1F810220263B1F8B3
:10254000102293B2D1F80822812100F036FB00203E
:1025500010BD022010BD10B5D0F8B42252689047CB
:10256000002010BD134610B50A46002100F08AFA7B
:10257000002010BD134610B50A46002100F01DFBD7
:10258000002010BD10B50446802100F0FBFA204663
:10259000BDE81040002100F0F5BA10B50323C0F8E3
:1025A0005C21C0F89432C0F8602113460A4600212D
:1025B00000F068FA002010BD10B505210023C0F816
:1025C00094121A46194600F05DFA002010BD10B5AD
:1025D0000223C261C0F89432026213460A46002107
:1025E00000F0EBFA002010BD10B504210023C0F864
:1025F00094121A46194600F0E0FA002010BD0000BF
:1026000010B50A46024903A000F0E2F8004810BDE8
:102610003C0B002043444320436F6E666967000013
:1026200012200880004870472400002010B50A4698
:10263000024903A000F0CCF8004810BD3C0B00207C
:1026400043444320496E746572666163650000000F
:1026500004200880004870472000002010B50A467A
:10266000024903A000F0B4F8004810BD3C0B002064
:1026700053544D6963726F656C656374726F6E69F4
:102680006373000010B50A46024903A000F0A0F8E9
:10269000004810BD3C0B002053544D333220566986
:1026A000727475616C20436F6D506F72740000001E
:1026B00010B51A2008800A480168001D0468001D32
:1026C0000068081809D008220649FFF785FB05496C
:1026D000042210312046FFF77FFB0248801E10BD08
:1026E000ACF7FF1F3A000020F8B504460020ADF813
:1026F000000048880D46010A082948D2DFE801F0A9
:102700004704091747473C45D4F8B012207C0A68B3
:1027100019E0207C02260028D4F8B40205D0C16A52
:1027200068468847014646703EE0816AF8E7C0B2D5
:1027300006282CD2DFE800F0030A1014181CD4F885
:10274000B002426805E0694690471CE0D4F8B00248
:102750008268E2B1207CF6E7D4F8B002C268F8E7FC
:10276000D4F8B0020269F4E7D4F8B0024269F0E7A5
:10277000D4F8B0028269ECE7207C40B9D4F8B40206
:10278000416B6846884701460EE0207C20B129460F
:102790002046FFF7F7FEF8BDD4F8B402016B684697
:1027A0008847014607204870BDF8000048B1EA8814
:1027B00052B1824200D90246ADF800202046FFF710
:1027C00006FFE8880028E6D12046FFF70DFFF8BD98
:1027D00070B5002300281ED00446002502E06D1CC1
:1027E000EDB2641C2678002EF9D1022404EB4504D6
:1027F00014801278CA545B1C0322CA5400245B1C48
:1028000006E0CA545B1CDAB28C54521CD3B2401C92
:102810000278002AF5D170BD01004FF0000004D00D
:10282000012901D0022901D0022070470120704700
:1028300010B580B1D0F8B43213B10023C0F8B4326F
:1028400009B1C0F8B012012180F89C12027000F0AA
:10285000BFF8002010BD022010BD10B5D0F8C00296
:10286000FEF750FABDE81040FFF7D6BF10B5D0F81C
:10287000C002FEF723FABDE81040FFF7CDBF2DE9F7
:10288000F0411746044651B1D4F8B40242691AB176
:1028900094F89C02032851D00220BDE8F081D4F8BE
:1028A0009432002504F11400022B03D0042B3AD0FB
:1028B000C3B33CE0D0E903639E4207D9F11AC1607B
:1028C0008AB239462046FFF755FE12E08068B0FB19
:1028D000F3F103FB110199B9984211D3D4F898127E
:1028E00088420DD2002211462046FFF743FEC4F86D
:1028F000985200231A461946204600F0C3F816E005
:10290000D4F8B402C16829B194F89C02032801D11B
:10291000204688478021204600F034F92046FFF702
:102920004BFE04E0FFE78021204600F02BF994F8ED
:10293000A002012804D184F8A05201E0204690476B
:102940000020AAE770B51546044649B1D4F8B40290
:1029500082691AB194F89C02032830D0022070BD1D
:10296000D4F8941204F5AA70032902D005291ED0C8
:1029700027E0D0E903218A420BD9531AC3600846E5
:10298000834200D303469AB229462046FFF7EAFD68
:1029900017E0D4F8B402016929B194F89C02032825
:1029A00001D1204688472046FFF71EFE09E000209F
:1029B0000146C4F89402204600F0E4F801E0204605
:1029C0009047002070BDD0F8C002FEF7C7B90000E4
:1029D00010B504461C481D49C0F86842C4F8C0023E
:1029E0000160082141600221816001610021816153
:1029F0000162FEF7CFFA08B1FDF77DFD0022D4F8A1
:102A0000C0021823114604F53074FEF72DF958233F
:102A1000002280212068FEF727F9C02300228121AF
:102A20002068FEF721F94FF4887300220121206805
:102A3000FEF71AF94FF48073002282212068FEF716
:102A400013F9002010BD0000D0080020005C0040F9
:102A50000A06D0F8C00201F07F0100EB411002D558
:102A600090F82A00704790F82A01704710B51C466C
:102A70001346D0F8C0022246FEF777F9BDE81040B1
:102A8000FFF7CABE10B5D0F8C002FEF79CF9BDE84A
:102A90001040FFF7C1BE70B5002204464023114626
:102AA000FFF7E4FF40260125C4F8646133460022A5
:102AB00080212046C4F85851FFF7D8FF6662A5610F
:102AC00084F89C520020C4F894026060C4F8A40208
:102AD000D4F8B80228B1D4F8B402002142682046E4
:102AE0009047002070BD90F89C12042903D190F803
:102AF0009D1280F89C120020704710B590F89C122F
:102B0000032904D1D0F8B412C96901B18847002063
:102B100010BD01740020704710B5D0F8C002FEF758
:102B2000EEFABDE81040FFF777BE70B5044600F539
:102B30002A70054600F04AF80120C4F89402B4F85F
:102B4000AE02C4F8980294F8A80210F01F010AD04F
:102B500001290DD0022910D000F08001204600F09C
:102B600011F8002070BD2946204600F09EF8F8E7D5
:102B70002946204600F0CAF9F3E72946204600F02E
:102B80001DF9EEE710B5D0F8C002FEF733F9BDE845
:102B90001040FFF741BE10B5D0F8C002FEF7CAFAE8
:102BA000BDE81040FFF738BE90F89C1280F89D12E7
:102BB000042180F89C120020704710B5D0F8C002A4
:102BC000FEF74DF9BDE81040FFF726BE0A78027007
:102BD0004A7842708A78CB7802EB032242800A79E5
:102BE0004B7902EB032282808A79C97902EB0121B9
:102BF000C18070470246002011B1C2F8B41270477C
:102C00000220704710B5D0F8B42202241AB112681D
:102C1000904700B90024204610BD000070B50E4654
:102C20001E4D897804462970012931D894F89C02F8
:102C300002280BD003280FD031462046FFF7A2FC14
:102C400029782046BDE87040FFF785BCD9B1032044
:102C5000616084F89C0209E071B16068884212D01A
:102C6000C1B22046FFF777FC297861602046FFF764
:102C7000C9FF02280CD006E0022084F89C022046FE
:102C80006160FFF768FC2046BDE87040FFF7ACBC10
:102C900031462046BDE87040FFF774BC7400002048
:102CA00010B5FFF778FF002010BD2DE9F0410A783C
:102CB000002612F0600208D0202A01D0402A70D1EC
:102CC000D0F8B422926890476DE04B78002201253D
:102CD0000A2B66D2DFE803F0405D6557650805659D
:102CE0002C29FFF701FD5EE004468888D8B9C88822
:102CF000C8B94888802816D200F07F0794F89C0253
:102D0000032810D084F89E7239462046FFF704FF4E
:102D10002046FFF769FC1FB1022084F89C0242E0C4
:102D200084F89C523FE020463BE0FFF777FF3AE013
:102D3000CB88012B35D190F89C32012B04D0022B8B
:102D400002D0032B2DD104E08260012200F10801A2
:102D500016E00122011D13E090F89C22012A03D005
:102D6000022A01D0032A1CD1CA88022A19D1C560BF
:102D7000D0F8A41209B10321C160022200F10C01B4
:102D8000FFF725FC0FE0498801290CD1C0F8A452B7
:102D900011E090F89C32012B08D0022B06D0032BB7
:102DA00004D0FFF7EFFB3046BDE8F08149880129E8
:102DB000F9D1C0F8A422FFF717FCF4E72DE9F041A0
:102DC0000A46044610780027097910F060030AD0FB
:102DD000202B01D0402B50D1D4F8B4021146836887
:102DE000204698478FE0C0F34110012806D0507864
:102DF000D0B301282AD003283FD107E0D4F8B40289
:102E0000114683682046BDE8F041184794F89C02BB
:102E1000022802D0032872D10AE071B380296ED053
:102E20002046FFF7AFFE80212046FFF7ABFE6AE0A9
:102E3000508838B931B1802904D0D08810B92046E3
:102E4000FFF7A0FE2046FFF7CFFB5CE094F89C0262
:102E50000228E2D0032852D1508898BB4806F1D00E
:102E60002046FFF7FAFCEDE7FFE794F89C02002606
:102E7000022803D0032842D112E040E009B18029A2
:102E80003DD1080601F07F0000EB800004EB8001DB
:102E900001D5143101E001F5AA7102220E602AE089
:102EA000080601F00F0000EB800004EB80000AD55B
:102EB000806920B301F07F0000EB800004EB800507
:102EC00014350BE01FE0D0F85801C0B101F07F00CD
:102ED00000EB800004EB800505F5AA7541B180295F
:102EE00006D02046FFF7B4FD10B10120286000E0B5
:102EF0002E60022229462046FFF769FB03E01146B7
:102F00002046FFF73FFB3846BDE8F08170B5054627
:102F100008780C4610F0600003D0202801D040282B
:102F200016D195F89C02012803D0022801D003286D
:102F30000ED1207901280BD8D5F8B4028268284632
:102F40009047E188014306D12846FFF74DFB02E098
:102F50002846FFF717FB002070BD704700487047F8
:102F6000B00600202DE9F0470C784FF0000C30F847
:102F7000243048F68F121340CA78002A7DD0012AE7
:102F80007CD0022A03D0032A79D04FF0010C48F2FA
:102F90008002134320F824300D7830F8254048F69D
:102FA0008F731C402C43144320F825400F7B48F6B8
:102FB000BF744BF68F7948F2C0054CF28006EFB330
:102FC00091F80080C24630F8287048F280181F40FF
:102FD00047EA080720F82A70B0F8507091F800808E
:102FE000074407EB0817B1F8088028F00108A7F894
:102FF0000084B0F8507091F80080074407EB081780
:10300000B1F80A8028F00108A7F808844F7891F8F1
:103010000080002F30F828704FEA47477ED0002FFD
:1030200005DA30F828701F40374320F8287091F8EF
:10303000008030F828707F0607D500E031E030F8D6
:1030400028701F402F4320F828700F7830F8275041
:103050001D40354320F82750CB780D78012B30F8F0
:10306000253003EA040301D083F02003134320F842
:1030700025300B7830F8231002E009E00EE00AE07A
:1030800001EA0901114320F823106046BDE8F087EA
:1030900043F400737BE743F4C06378E743F4806351
:1030A00075E74F7827B3B0F850600F78064406EB09
:1030B0000716CF8827F00107A6F800740F7830F8BC
:1030C0002760760605D530F827601E402E4320F88D
:1030D0002760CB78012B06D00B7830F823102140E5
:1030E00081F02001CEE70B7830F823102140C9E7AA
:1030F000B0F850400D78044404EB0514CD8825F059
:103100000105A4F80854B0F850400D78044404EBCD
:1031100005150C6905F20C4564B100E02CE03E2C6D
:103120000ED86708E40700D07F1C4FF6FF7404EA4E
:1031300087240DE02C8824F4F84444F4004407E08C
:103140006709E40600D17F1E4FF4004444EA872457
:103150002C800D7830F82540640405D530F82540E2
:103160001C40344320F825400B7830F8231001EA46
:10317000090181F4405185E7002F05DA30F8287005
:103180001F40374320F828700F7830F82760760604
:1031900005D530F827601E402E4320F827600F78B1
:1031A00030F827601E402E4320F827600D7830F855
:1031B000253003EA090383F44053134320F82530F4
:1031C00091E72DE9F04391F80C804F780A7848F6A2
:1031D000BF7C4BF68F7948F2800348F2C0054CF271
:1031E000800648F68F74B8F1000F28D0002F30F811
:1031F00022704FEA474748D0002F05DA30F8227096
:103200002740374320F822700A7830F822707F0672
:1032100005D530F8227027402F4320F822700D7812
:1032200030F825202240324320F825200C7830F851
:10323000242002EA0C021A4320F824201AE07FB16D
:1032400030F82260760605D530F8226026402E43FD
:1032500020F822600A7830F8221001EA0C010EE012
:1032600030F822506D0405D530F822502540354302
:1032700020F822500A7830F8221001EA0901194397
:1032800020F822100020BDE8F083002F05DA30F886
:1032900022702740374320F822700A7830F82260E5
:1032A000760605D530F8226026402E4320F82260AD
:1032B0000E7830F8262022402A4320F826200C7869
:1032C00030F8242002EA09021A4320F82420C1E73A
:1032D0000020704700B50121A0F840100021A0F89F
:1032E0004010A0F84410A0F8501000F02AF9002077
:1032F00000BD30F8401F21F43F410180002070479D
:103300000020704730B50A7BB2BB4A7848F68F750B
:1033100048F28004C2B10B7830F82320520607D55A
:1033200030F823202A4048F2C0052A4320F8232001
:10333000CA78012A20D00A7830F8221048F6BF73E4
:10334000194081F0200114E00A7830F822305B0443
:1033500007D530F822302B404CF280052B4320F863
:1033600022300A7830F822104BF68F73194081F41E
:103370004051214320F82210002030BD10B54A787A
:103380000978002A48F2800330F8212005D048F659
:10339000BF74224082F0100204E04BF68F7422408A
:1033A00082F480521A4320F82120002010BDF0B58D
:1033B0000E46054691F801C00022097B3469B069C8
:1033C00048F28007BCF1010F04D0A0424FD9001B86
:1033D000B0614EE0A04202D9001BB06101E004469A
:1033E000B26169B1307835F820104906B5F850104F
:1033F000294401EB001012D5A0F80C44728911E0A9
:10340000A3B2F2882846716900F0E2F8B5F85000DE
:103410003178284400EB0110A0F804441EE0A0F825
:1034200004443289A3B22846716900F0D1F870785B
:1034300048F68F7110B1012807D00FE0327835F8C7
:103440002200084048F2C00105E0327835F8220039
:1034500008404CF28001084325F82200317835F805
:10346000210048F6BF72104080F0300064E004464E
:10347000B2614FF6FF724FF40043A1B3BCF1000FED
:1034800013D025E0018821F4F84141F400410AE01D
:103490003E2C3CD86108E30700D0491C02EA812198
:1034A00001E043EA812101803EE0B5F85000317827
:1034B000284400EB011000F2044074B13E2C13D8F4
:1034C00061085FEAC47C00D0491C02EA81210180C6
:1034D000707840B101281FD026E0018821F4F8411E
:1034E00041F40041F3E707E061095FEAC46C00D1F1
:1034F000491E43EA8121EAE7B5F8500031782844B3
:1035000000EB011000F20C40002CC1D1BAE76109B8
:10351000E206C6D1491EC4E7B5F850104819317803
:1035200000EB0110A0F80C44317835F821004BF67F
:103530008F72104080F44050384325F8210000205D
:10354000F0BD30F8401F41F43F410180002070473A
:1035500010B54FF400510448FDF7A4F8BDE8104041
:103560000248FDF791BC000000100048D008002080
:1035700010B54FF480410448FDF794F8BDE81040C1
:103580000248FDF781BC000000100048D008002070
:10359000B0F844007047000010B500EB42005C0832
:1035A00000F5806009D000BF30F8042B01F8012B32
:1035B000120A01F8012B641EF6D1DA0701D0008847
:1035C000087010BD11B98021A0F84C100020704780
:1035D00010B55B1C00EB42005B0800F5806009D071
:1035E00011F8012B11F8014B42EA042220F8042BB8
:1035F0005B1EF5D110BDFEE70FB4084B10B504A952
:1036000002AA039800F030F8044602A9002000F056
:103610008BF9204610BC5DF814FB00002939000826
:103620000907090E002804DB00F1E02080F80014EF
:10363000704700F00F0000F1E02080F8141D704783
:10364000004870478801002002E008C8121F08C126
:10365000002AFAD170477047002001E001C1121F13
:10366000002AFBD1704700002DE9FF4F8DB09B462B
:103670000F460446002606E025280BD05A460F992F
:103680009047641C761C20780028F5D111B0304694
:10369000BDE8F08F0025A8460122984900E00543C7
:1036A00014F8013F203B02FA03F00842F7D12078DA
:1036B0002E2817D114F8010F45F004052A280ED042
:1036C0006FF02F022078A0F1300109290AD808EB09
:1036D000880102EB410100EB0108641CF2E757F896
:1036E000048B641C20786C280DD004DC4C2812D08C
:1036F0006A2811D104E074280DD07A280CD10AE090
:1037000045F4001507E0617845F48015814202D147
:10371000641C05F58015641C2278692A45D008DCF4
:10372000002AB3D0582A69D0632A10D0642A08D15D
:103730003BE0702A67D0732A13D0752A5CD0782AB0
:103740005CD010465A460F999047761CD3E017F884
:10375000040B8DF8000000208DF80100E9460120DF
:1037600003E057F8049B4FF0FF3069074FF0000566
:1037700001D40AE06D1C45450DDA8542FADB19F8E3
:1037800005100029F6D106E06D1C8542FCDB19F816
:1037900005100029F8D12E4404E019F8010B5A460F
:1037A0000F9990476D1EF8D2A5E00A200021CDE9BF
:1037B0000801C5F3025002280DD001CFC117031E26
:1037C00071F100030DDA4FF0000CD0EB0C006CEB44
:1037D00001012D2308E0FF1D27F00707F7E802018C
:1037E000EDE72B0504D52B238DF8283001233BE092
:1037F000EB0739D02023F7E70A2000E01020002152
:10380000CDE9080107E01020002145F00405CDE9CD
:1038100008014FF00808C5F3025002280FD001CF6D
:1038200000214FF0000A2B071FD5702A0DD0DDE9CB
:1038300008C38CF0100C5CEA030C0CD015E0FF1DE3
:1038400027F00707F7E80201EBE740228DF8282070
:103850004FF0010A0BE050EA010306D030238DF847
:1038600028308DF8292002239A46582A04D024A211
:103870000DF120090B9209E026A2F9E7DDE9082302
:10388000FCF79EFC0B9B9B5C09F8013D50EA010292
:10389000F4D1ADEB090020300890680701D44FF057
:1038A00001080899884502DDA8EB010000E000202E
:1038B0008046002506E00AA85A46405D0F999047C9
:1038C0006D1C761C5545F6DB04E030205A460F99F6
:1038D0009047761CB8F10001A8F10108F5DC05E07D
:1038E00019F8010B5A460F999047761C0899481E03
:1038F00008900029F4DC641CC5E6000009280100DA
:103900003031323334353637383961626364656655
:103910000000000030313233343536373839414217
:1039200043444546000000000A68531C0B601070B9
:10393000704700002DE9F04116460446012902D0E7
:10394000022907D102E035213CA001E0352149A040
:10395000FCF7BAFD0520FCF7CFFD04F11200227838
:1039600052A10746FFF748FE3846FCF78EFC81B2AD
:103970003846FCF7A9FD0028F6D10520FCF7BCFD70
:10398000627851A13846FFF737FE3846FCF77DFCD8
:1039900081B23846FCF798FD0028F6D10520FCF7E7
:1039A000ABFDA2784FA13846FFF726FE3846FCF75C
:1039B0006CFC81B23846FCF787FD0028F6D1052063
:1039C000FCF79AFD002514E060192A46037A4AA103
:1039D0003846FFF711FE3846FCF757FC81B23846EF
:1039E000FCF772FD0028F6D13220FCF785FD6D1C36
:1039F000EDB2A078A842E7D83220FCF77DFD36B1C1
:103A0000012E07D0022E12D0032E07D112E00C2176
:103A10003EA001E00F2141A0FCF756FD3220FCF74B
:103A20006BFDBDE8F041352140A0FCF74DBD0E21F6
:103A30004CA0F1E711214FA0EEE700003D3D3D3DD8
:103A40003D3D3D3D3D3D3D3D3D3D3D3D3D3D3D3DA6
:103A50003D205458203D3D3D3D3D3D3D3D3D3D3D9E
:103A60003D3D3D3D3D3D3D3D3D3D3D3D3D3D3D0DB6
:103A70000A0000003D3D3D3D3D3D3D3D3D3D3D3D60
:103A80003D3D3D3D3D3D3D3D3D205258203D3D3D70
:103A90003D3D3D3D3D3D3D3D3D3D3D3D3D3D3D3D56
:103AA0003D3D3D3D3D3D3D0D0A00000044657669CC
:103AB0006365277320616464726573733A2030789C
:103AC00025780D0A000000005265676973746572FD
:103AD000277320616464726573733A2030782578A7
:103AE0000D0A0000427974657320636F756E743A35
:103AF0002025640D0A000000446174615B25645D4B
:103B00003A20307825780D0A0000000053544154C3
:103B100055533A204F4B0D0A0000000053544154B6
:103B200055533A204552524F520D0A003D3D3D3DFE
:103B30003D3D3D3D3D3D3D3D3D3D3D3D3D3D3D3DB5
:103B40003D3D3D3D3D3D3D3D3D3D3D3D3D3D3D3DA5
:103B50003D3D3D3D3D3D3D3D3D3D3D3D3D3D3D0DC5
:103B60000A0000005354415455533A2042555359CA
:103B70000D0A00005354415455533A2054494D45C1
:103B80004F55540D0A000000FEB50278194C202153
:103B90004FF0FF3604F10805522A13D0572A28D1D6
:103BA00001700146204600F029F8A0780296CDE980
:103BB00000506278217801230F48FCF7E7FE0246A7
:103BC000012110E0017001460A4800F017F8A078C2
:103BD0000296CDE900506278217801230648FCF76F
:103BE00023FE0246022103B00248BDE8F040FFF781
:103BF000A1BEFEBD8C010020A003002070B50B46C5
:103C00000446011D10221846FCF746FB20701022C6
:103C1000211D6068FCF740FB60700A22211D60686E
:103C2000FCF73AFBA070002508E01022211D606817
:103C3000FCF732FB61196D1C0872EDB2A078A84246
:103C4000F3D870BDFCF788FFFEF7D2FAFEF7E0F874
:103C5000FEF740F9FEF71CF9044C002520780128F6
:103C6000FCD10348FFF790FF2570F7E70000002024
:103C7000A002002002030405060708090A0B0C0D28
:103C80000E0F10100102030405060708090A0B0CA9
:103C90000D0E0F10000000000000000001020304E0
:103CA0000607080900404040404040404040414134
:103CB0004141414040404040404040404040404001
:103CC000404040404005020202020202020202029B
:103CD0000202020202202020202020202020200298
:103CE0000202020202029090909090901010101028
:103CF00010101010101010101010101010101010C4
:103D00000202020202028888888888880808080857
:103D10000808080808080808080808080808080823
:103D20000202020240000000A53C00084C3D0008D1
:103D3000000000208C010000100400080C3E000868
:103D40008C010020841700005836000841132126FA
:103D50001B0851041A5D041A85041AB1041A0104DF
:103D60001A2D04170403090412011402020216405A
:103D700083044057260201020301031A1A03137138
:103D8000041B086D041A69041A9504192F11821076
:103D900053127A130A0632022A401C1C09024357A6
:103DA0001125C03209041B01020B13052416100152
:103DB0000524011009010424020205240617010745
:103DC000058203081C1009048D320A1D0705010233
:103DD000432C070581070938442A40072A81071127
:103DE0002B0907440A3B0444138D231408F52214BD
:103DF00008752442081A39101A81101AC704C11A0A
:0C3E000075182A691C19041A5D044100A1
:040000050800018965
:00000001FF
